S00D000074657374312E7372656326
S11300000C942A000C9461030C9447000C94470050
S11300100C9447000C9447000C9447000C94470040
S11300200C9447000C9447000C9447000C94E8038C
S11300300C9447000C9447000C9447000C94470020
S11300400C9447000C9447000C9447000C94470010
S11300500C94470011241FBECFE5D8E0DEBFCDBF0E
S113006010E0A0E6B0E0E8EFFCE002C005900D92DD
S1130070A636B107D9F720E0A6E6B0E001C01D928C
S1130080AA37B207E1F70E9482020C947A060C9414
S1130090000081111BC0413059F42AB381E090E083
S11300A002C0880F991F6A95E2F7822B8ABB0895D4
S11300B0411162C02AB381E090E002C0880F991F09
S11300C06A95E2F7809582238ABB08958130D9F43A
S11300D0413059F427B381E090E002C0880F991FA2
S11300E06A95E2F7822B87BB0895411145C027B377
S11300F081E090E002C0880F991F6A95E2F780952D
S1130100822387BB08958230D9F4413059F424B353
S113011081E090E002C0880F991F6A95E2F7822B74
S113012084BB0895411128C024B381E090E002C04B
S1130130880F991F6A95E2F78095822384BB0895FE
S11301408330D1F4413059F421B381E090E002C00E
S1130150880F991F6A95E2F7822B81BB089541119C
S11301600BC021B381E090E002C0880F991F6A950B
S1130170E2F78095822381BB089581111BC0413031
S113018059F42BB381E090E002C0880F991F6A955F
S1130190E2F7822B8BBB0895411162C02BB381E03F
S11301A090E002C0880F991F6A95E2F78095822338
S11301B08BBB08958130D9F4413059F428B381E0E0
S11301C090E002C0880F991F6A95E2F7822B88BBE2
S11301D00895411145C028B381E090E002C0880F22
S11301E0991F6A95E2F78095822388BB089582302F
S11301F0D9F4413059F425B381E090E002C0880F6E
S1130200991F6A95E2F7822B85BB0895411128C096
S113021025B381E090E002C0880F991F6A95E2F748
S11302208095822385BB08958330D1F4413059F4FD
S113023022B381E090E002C0880F991F6A95E2F72B
S1130240822B82BB089541110BC022B381E090E060
S113025002C0880F991F6A95E2F78095822382BBBA
S11302600895811102C06BBB0895813011F468BBFD
S11302700895823011F465BB0895833009F462BB9C
S113028008958BB780648BBF08958BB78F7B8BBF2A
S113029008958AB780648ABF089585B7816085BF51
S11302A085B78D7F85BF0E9445010E945E010E9433
S11302B0490108958FB780688FBF08958FB78F77EE
S11302C08FBF0895CF93C82F41E061E081E00E9481
S11302D0BD0040E062E081E00E94BD006C2F80E040
S11302E00E94310141E063E081E00E94BD008FE99A
S11302F09FE00197F1F700C0000040E063E081E077
S11303000E94BD008FE99FE00197F1F700C0000053
S11303106C2F6295607F80E00E94310141E063E0D0
S113032081E00E94BD008FE99FE00197F1F700C0D2
S1130330000040E063E081E00E94BD008FE99FE09F
S11303400197F1F700C00000CF910895CF93C82F13
S113035040E061E081E00E94BD0040E062E081E0B5
S11303600E94BD006C2F80E00E94310141E063E0F7
S113037081E00E94BD008FE99FE00197F1F700C082
S1130380000040E063E081E00E94BD008FE99FE04F
S11303900197F1F700C000006C2F6295607F80E048
S11303A00E94310141E063E081E00E94BD008FE9D9
S11303B09FE00197F1F700C0000040E063E081E0B6
S11303C00E94BD008FE99FE00197F1F700C0000093
S11303D0CF91089541E064E080E00E94490041E04B
S11303E065E080E00E94490041E066E080E00E9410
S11303F0490041E067E080E00E94490041E061E09B
S113040081E00E94490041E062E081E00E944900ED
S113041041E063E081E00E9449002FE785EB91E031
S1130420215080409040E1F700C0000083E30E9427
S1130430A6018FE39FE10197F1F700C0000082E37A
S11304400E94A6018FE39FE10197F1F700C000002D
S113045088E20E94A6018FE39FE10197F1F700C0B3
S113046000008CE00E94A6018FE39FE10197F1F761
S113047000C0000086E00E94A6018FE39FE101977F
S1130480F1F700C0000081E00E94A6018FE39FE124
S11304900197F1F700C00000089520E4829FC00195
S11304A011248068860F0E94A60187EC90E00197D2
S11304B0F1F700C000000895CF93DF93EC01888129
S11304C09981009739F022960E946201899199914D
S11304D00097D1F7DF91CF91089580916F0081113A
S11304E010C041E060E083E00E94BD0080E58A9591
S11304F0F1F740E060E083E00E94BD0081E080937A
S11305006F0008950E94AA040E941E040E94EA013A
S11305100E9408050E945A010E946D022FEF81EE8D
S113052094E0215080409040E1F700C000008091A9
S1130530660090916700A0916800B0916900C3972C
S1130540A105B10528F00E945C040E94A004B0C07B
S11305500E9447040E949B042FEF87EA91E62150F2
S113056080409040E1F700C000000E946D028FE5DA
S11305709AEE0197F1F700C00000C0906600D09099
S11305806700E0906800F09069000E94A5049FEF66
S113059027EA81E6915020408040E1F700C0000046
S11305A00E946D028FE59AEE0197F1F700C00000FA
S11305B08090660090906700A0906800B0906900F9
S11305C0C814D904EA04FB04B8F50E94A0049FEF00
S11305D021EE84E0915020408040E1F700C000000B
S11305E00E946D028FE59AEE0197F1F700C00000BA
S11305F08091660090916700A0916800B0916900B5
S113060088169906AA06BB06B8F00E9471040E94D7
S11306106D028FE59AEE0197F1F700C0000080911A
S1130620660090916700A0916800B09169008816F7
S11306309906AA06BB0648F78C149D04AE04BF04B1
S1130640B8F50E94A0049FEF21EE84E09150204071
S11306508040E1F700C000000E946D028FE59AEE31
S11306600197F1F700C00000809166009091670047
S1130670A0916800B0916900C816D906EA06FB0685
S1130680B8F00E9486040E946D028FE59AEE0197ED
S1130690F1F700C000008091660090916700A0917E
S11306A06800B0916900C816D906EA06FB0648F747
S11306B00E946D028FE59AEE0197F1F700C00000E9
S11306C036CF1F920F920FB60F9211242F933F93A0
S11306D04F935F936F937F938F939F93AF93BF9346
S11306E0EF93FF9380916F00813009F060C0809197
S11306F06E0081110DC012BE81E080936E001092D5
S11307006A0010926B0010926C0010926D004FC042
S113071022B780916A0090916B00A0916C00B09117
S11307206D00BA2FA92F982F8827BC01CD01620F25
S1130730711D811D911D0E944A0528E23EE74CE887
S11307405DE30E94B0050E941B05609366007093F0
S11307506700809368009093690060E081E00E94E4
S11307604D024AE060E770E0809166009091670076
S11307700E944506A0E7B0E00D900020E9F711972C
S113078085E0E0E6F0E001900D928A95E1F780E7DC
S113079090E00E945C0210926A0010926B0010922A
S11307A06C0010926D0010926E0010926F00FF9119
S11307B0EF91BF91AF919F918F917F916F915F91D5
S11307C04F913F912F910F900FBE0F901F9018954E
S11307D01F920F920FB60F9211248F939F93AF9392
S11307E0BF9380916A0090916B00A0916C00B091CE
S11307F06D000196A11DB11D80936A0090936B005A
S1130800A0936C00B0936D004597A105B10568F005
S113081012BE10926F0010926E0010926A00109235
S11308206B0010926C0010926D00BF91AF919F917C
S11308308F910F900FBE0F901F90189541E064E0C8
S113084082E00E94490041E065E082E00E944900A4
S113085041E064E082E00E94BD0040E065E082E0A7
S11308600E94BD0041E062E082E00E94490041E054
S113087063E082E00E94490041E062E082E00E947D
S1130880BD0040E063E082E00E94BD00089540E0C6
S113089064E082E00E94BD0040E065E082E00E94E6
S11308A0BD0040E062E082E00E94BD0040E063E001
S11308B082E00E94BD00089541E064E082E00E946D
S11308C0BD0040E065E082E00E94BD0041E062E0DE
S11308D082E00E94BD0040E063E082E00E94BD002F
S11308E0089540E064E082E00E94BD0040E065E0DD
S11308F082E00E94BD0041E062E082E00E94BD000F
S113090040E063E082E00E94BD00089541E064E0BD
S113091082E00E94BD0040E065E082E00E94BD00EC
S113092040E062E082E00E94BD0040E063E082E0DB
S11309300E94BD00089589EF90E09BBD8ABD089593
S113094086E791E09BBD8ABD089583EF91E09BBD4E
S11309508ABD089541E065E083E00E9449000E9459
S1130960DE0486E791E09BBD8ABD089583B78F7B43
S113097083BF83B7877F83BF83B7816083BF83B718
S1130980826083BF83B78B7F83BF83B78F7E83BF30
S113099083B78F7D83BF89B78E7F89BF89B78D7FEA
S11309A089BF88B7816088BF88B7826088BF12BE5C
S11309B01CBE089589B7816089BF08958FB58E7F65
S11309C08FBD8FB582608FBD8EB588608EBD8EB5AC
S11309D080618EBD8EB581608EBD8EB582608EBD08
S11309E08EB58B7F8EBD8FB580688FBD8FB58062CD
S11309F08FBD8FB58F7B8FBD8FB58F7E8FBD1DBC97
S1130A001CBC1BBC1ABC87E893E197BD86BD089546
S1130A100E944D010E94410141E060E083E00E9498
S1130A20490040E062E083E00E9449000E94B6046D
S1130A300E94DA0408950E948F0588F09F5798F069
S1130A40B92F9927B751B0F0E1F0660F771F881FCF
S1130A50991F1AF0BA95C9F714C0B13091F00E94E9
S1130A60A905B1E008950C94A905672F782F88276C
S1130A70B85F39F0B93FCCF3869577956795B39510
S1130A80D9F73EF490958095709561957F4F8F4F7F
S1130A909F4F0895E89409C097FB3EF49095809584
S1130AA0709561957F4F8F4F9F4F9923A9F0F92F30
S1130AB096E9BB279395F695879577956795B795AE
S1130AC0F111F8CFFAF4BB0F11F460FF1BC06F5F94
S1130AD07F4F8F4F9F4F16C0882311F096E911C0A6
S1130AE0772321F09EE8872F762F05C0662371F0C7
S1130AF096E8862F70E060E02AF09A95660F771FDB
S1130B00881FDAF7880F9695879597F9089557FD0A
S1130B109058440F551F59F05F3F71F04795880F67
S1130B2097FB991F61F09F3F79F0879508951216FE
S1130B3013061406551FF2CF4695F1DF08C01616AA
S1130B4017061806991FF1CF86957105610508945B
S1130B500895E894BB2766277727CB0197F9089572
S1130B600E94C3050C9434060E94260638F00E94A5
S1130B702D0620F0952311F00C941D060C942306E9
S1130B8011240C94AA050E94870570F3959FC1F364
S1130B90950F50E0551F629FF001729FBB27F00D27
S1130BA0B11D639FAA27F00DB11DAA1F649F66277C
S1130BB0B00DA11D661F829F2227B00DA11D621FCB
S1130BC0739FB00DA11D621F839FA00D611D221F85
S1130BD0749F3327A00D611D231F849F600D211D69
S1130BE0822F762F6A2F11249F5750409AF0F1F0EC
S1130BF088234AF0EE0FFF1FBB1F661F771F881F55
S1130C0091505040A9F79E3F510580F00C941D0669
S1130C100C94AA055F3FE4F3983ED4F38695779548
S1130C206795B795F795E7959F5FC1F7FE2B880FFA
S1130C30911D9695879597F9089597F99F6780E890
S1130C4070E060E008959FEF80EC089500240A941A
S1130C501616170618060906089500240A94121693
S1130C601306140605060895092E0394000C11F4C6
S1130C70882352F0BB0F40F4BF2B11F460FF04C073
S1130C806F5F7F4F8F4F9F4F0895BB274A3031F4DA
S1130C90992322F4BDE2909581959F4F0C945106BF
S1130CA0BB27FB015527AA27880F991FAA1FA41742
S1130CB010F0A41B83955051B9F7A05DAA3308F036
S1130CC0A95DA193009779F7B111B1931192CB016A
S1130CD00C946A06DC01FC01672F71917723E1F71C
S1130CE0329704C07C916D9370836291AE17BF07F5
S10B0CF0C8F30895F894FFCF46
S1090CF820636D200000E2
S9030000FC
